{
  "_format": "hh-sol-artifact-1",
  "contractName": "NFTang",
  "sourceName": "contracts/NFTang.sol",
  "abi": [
    {
      "inputs": [],
      "stateMutability": "nonpayable",
      "type": "constructor"
    },
    {
      "anonymous": false,
      "inputs": [
        {
          "indexed": true,
          "internalType": "address",
          "name": "owner",
          "type": "address"
        },
        {
          "indexed": true,
          "internalType": "address",
          "name": "approved",
          "type": "address"
        },
        {
          "indexed": true,
          "internalType": "uint256",
          "name": "tokenId",
          "type": "uint256"
        }
      ],
      "name": "Approval",
      "type": "event"
    },
    {
      "anonymous": false,
      "inputs": [
        {
          "indexed": true,
          "internalType": "address",
          "name": "owner",
          "type": "address"
        },
        {
          "indexed": true,
          "internalType": "address",
          "name": "operator",
          "type": "address"
        },
        {
          "indexed": false,
          "internalType": "bool",
          "name": "approved",
          "type": "bool"
        }
      ],
      "name": "ApprovalForAll",
      "type": "event"
    },
    {
      "anonymous": false,
      "inputs": [
        {
          "indexed": false,
          "internalType": "address",
          "name": "sender",
          "type": "address"
        },
        {
          "indexed": false,
          "internalType": "uint256",
          "name": "tokenId",
          "type": "uint256"
        }
      ],
      "name": "MintSuccess",
      "type": "event"
    },
    {
      "anonymous": false,
      "inputs": [
        {
          "indexed": true,
          "internalType": "address",
          "name": "from",
          "type": "address"
        },
        {
          "indexed": true,
          "internalType": "address",
          "name": "to",
          "type": "address"
        },
        {
          "indexed": true,
          "internalType": "uint256",
          "name": "tokenId",
          "type": "uint256"
        }
      ],
      "name": "Transfer",
      "type": "event"
    },
    {
      "inputs": [
        {
          "internalType": "address",
          "name": "to",
          "type": "address"
        },
        {
          "internalType": "uint256",
          "name": "tokenId",
          "type": "uint256"
        }
      ],
      "name": "approve",
      "outputs": [],
      "stateMutability": "nonpayable",
      "type": "function"
    },
    {
      "inputs": [
        {
          "internalType": "address",
          "name": "owner",
          "type": "address"
        }
      ],
      "name": "balanceOf",
      "outputs": [
        {
          "internalType": "uint256",
          "name": "",
          "type": "uint256"
        }
      ],
      "stateMutability": "view",
      "type": "function"
    },
    {
      "inputs": [
        {
          "internalType": "uint256",
          "name": "tokenId",
          "type": "uint256"
        }
      ],
      "name": "getApproved",
      "outputs": [
        {
          "internalType": "address",
          "name": "",
          "type": "address"
        }
      ],
      "stateMutability": "view",
      "type": "function"
    },
    {
      "inputs": [
        {
          "internalType": "address",
          "name": "owner",
          "type": "address"
        },
        {
          "internalType": "address",
          "name": "operator",
          "type": "address"
        }
      ],
      "name": "isApprovedForAll",
      "outputs": [
        {
          "internalType": "bool",
          "name": "",
          "type": "bool"
        }
      ],
      "stateMutability": "view",
      "type": "function"
    },
    {
      "inputs": [],
      "name": "makeNFTang",
      "outputs": [],
      "stateMutability": "nonpayable",
      "type": "function"
    },
    {
      "inputs": [],
      "name": "name",
      "outputs": [
        {
          "internalType": "string",
          "name": "",
          "type": "string"
        }
      ],
      "stateMutability": "view",
      "type": "function"
    },
    {
      "inputs": [
        {
          "internalType": "uint256",
          "name": "tokenId",
          "type": "uint256"
        }
      ],
      "name": "ownerOf",
      "outputs": [
        {
          "internalType": "address",
          "name": "",
          "type": "address"
        }
      ],
      "stateMutability": "view",
      "type": "function"
    },
    {
      "inputs": [
        {
          "internalType": "uint256",
          "name": "tokenId",
          "type": "uint256"
        },
        {
          "internalType": "string[]",
          "name": "list",
          "type": "string[]"
        },
        {
          "internalType": "string",
          "name": "salt",
          "type": "string"
        }
      ],
      "name": "pickWord",
      "outputs": [
        {
          "internalType": "string",
          "name": "",
          "type": "string"
        }
      ],
      "stateMutability": "pure",
      "type": "function"
    },
    {
      "inputs": [
        {
          "internalType": "address",
          "name": "from",
          "type": "address"
        },
        {
          "internalType": "address",
          "name": "to",
          "type": "address"
        },
        {
          "internalType": "uint256",
          "name": "tokenId",
          "type": "uint256"
        }
      ],
      "name": "safeTransferFrom",
      "outputs": [],
      "stateMutability": "nonpayable",
      "type": "function"
    },
    {
      "inputs": [
        {
          "internalType": "address",
          "name": "from",
          "type": "address"
        },
        {
          "internalType": "address",
          "name": "to",
          "type": "address"
        },
        {
          "internalType": "uint256",
          "name": "tokenId",
          "type": "uint256"
        },
        {
          "internalType": "bytes",
          "name": "_data",
          "type": "bytes"
        }
      ],
      "name": "safeTransferFrom",
      "outputs": [],
      "stateMutability": "nonpayable",
      "type": "function"
    },
    {
      "inputs": [
        {
          "internalType": "address",
          "name": "operator",
          "type": "address"
        },
        {
          "internalType": "bool",
          "name": "approved",
          "type": "bool"
        }
      ],
      "name": "setApprovalForAll",
      "outputs": [],
      "stateMutability": "nonpayable",
      "type": "function"
    },
    {
      "inputs": [
        {
          "internalType": "bytes4",
          "name": "interfaceId",
          "type": "bytes4"
        }
      ],
      "name": "supportsInterface",
      "outputs": [
        {
          "internalType": "bool",
          "name": "",
          "type": "bool"
        }
      ],
      "stateMutability": "view",
      "type": "function"
    },
    {
      "inputs": [],
      "name": "symbol",
      "outputs": [
        {
          "internalType": "string",
          "name": "",
          "type": "string"
        }
      ],
      "stateMutability": "view",
      "type": "function"
    },
    {
      "inputs": [
        {
          "internalType": "uint256",
          "name": "tokenId",
          "type": "uint256"
        }
      ],
      "name": "tokenURI",
      "outputs": [
        {
          "internalType": "string",
          "name": "",
          "type": "string"
        }
      ],
      "stateMutability": "view",
      "type": "function"
    },
    {
      "inputs": [
        {
          "internalType": "address",
          "name": "from",
          "type": "address"
        },
        {
          "internalType": "address",
          "name": "to",
          "type": "address"
        },
        {
          "internalType": "uint256",
          "name": "tokenId",
          "type": "uint256"
        }
      ],
      "name": "transferFrom",
      "outputs": [],
      "stateMutability": "nonpayable",
      "type": "function"
    }
  ],
  "bytecode": "0x608060405260405180610160016040528061012f81526020016200412361012f91396008908051906020019062000038929190620005ee565b506040518061010001604052806040518060400160405280600581526020017f616e67727900000000000000000000000000000000000000000000000000000081525081526020016040518060400160405280600881526020017f6c6f617468696e6700000000000000000000000000000000000000000000000081525081526020016040518060400160405280600881526020017f6772696576696e6700000000000000000000000000000000000000000000000081525081526020016040518060400160405280600681526020017f616d617a6564000000000000000000000000000000000000000000000000000081525081526020016040518060400160405280600981526020017f746572726966696564000000000000000000000000000000000000000000000081525081526020016040518060400160405280600881526020017f61646d6972696e6700000000000000000000000000000000000000000000000081525081526020016040518060400160405280600881526020017f656373746174696300000000000000000000000000000000000000000000000081525081526020016040518060400160405280600881526020017f766967696c616e7400000000000000000000000000000000000000000000000081525081525060099060086200022d9291906200067f565b506040518061010001604052806040518060400160405280600881526020017f626f796d6f64657200000000000000000000000000000000000000000000000081525081526020016040518060400160405280600881526020017f7477696e6b686f6e00000000000000000000000000000000000000000000000081525081526020016040518060400160405280600381526020017f616770000000000000000000000000000000000000000000000000000000000081525081526020016040518060400160405280600881526020017f6d616e6d6f64657200000000000000000000000000000000000000000000000081525081526020016040518060400160405280600581526020017f7477696e6b00000000000000000000000000000000000000000000000000000081525081526020016040518060400160405280600281526020017f676600000000000000000000000000000000000000000000000000000000000081525081526020016040518060400160405280600281526020017f626600000000000000000000000000000000000000000000000000000000000081525081526020016040518060400160405280600481526020017f6873747300000000000000000000000000000000000000000000000000000000815250815250600a906008620004229291906200067f565b503480156200043057600080fd5b506040518060400160405280600681526020017f54414e47434f00000000000000000000000000000000000000000000000000008152506040518060400160405280600681526020017f54414e47434f00000000000000000000000000000000000000000000000000008152508160009080519060200190620004b5929190620005ee565b508060019080519060200190620004ce929190620005ee565b5050506200051c6040518060400160405280601781526020017f54686973206973206d79204e465420636f6e74726163740000000000000000008152506200052260201b62000f471760201c565b620008a0565b620005c281604051602401620005399190620007b4565b6040516020818303038152906040527f41304fac000000000000000000000000000000000000000000000000000000007bffffffffffffffffffffffffffffffffffffffffffffffffffffffff19166020820180517bffffffffffffffffffffffffffffffffffffffffffffffffffffffff8381831617835250505050620005c560201b60201c565b50565b60008151905060006a636f6e736f6c652e6c6f679050602083016000808483855afa5050505050565b828054620005fc906200082a565b90600052602060002090601f0160209004810192826200062057600085556200066c565b82601f106200063b57805160ff19168380011785556200066c565b828001600101855582156200066c579182015b828111156200066b5782518255916020019190600101906200064e565b5b5090506200067b9190620006e6565b5090565b828054828255906000526020600020908101928215620006d3579160200282015b82811115620006d2578251829080519060200190620006c1929190620005ee565b5091602001919060010190620006a0565b5b509050620006e2919062000705565b5090565b5b8082111562000701576000816000905550600101620006e7565b5090565b5b808211156200072957600081816200071f91906200072d565b5060010162000706565b5090565b5080546200073b906200082a565b6000825580601f106200074f575062000770565b601f0160209004906000526020600020908101906200076f9190620006e6565b5b50565b60006200078082620007d8565b6200078c8185620007e3565b93506200079e818560208601620007f4565b620007a9816200088f565b840191505092915050565b60006020820190508181036000830152620007d0818462000773565b905092915050565b600081519050919050565b600082825260208201905092915050565b60005b8381101562000814578082015181840152602081019050620007f7565b8381111562000824576000848401525b50505050565b600060028204905060018216806200084357607f821691505b602082108114156200085a576200085962000860565b5b50919050565b7f4e487b7100000000000000000000000000000000000000000000000000000000600052602260045260246000fd5b6000601f19601f8301169050919050565b61387380620008b06000396000f3fe608060405234801561001057600080fd5b50600436106100f55760003560e01c80636352211e11610097578063b88d4fde11610066578063b88d4fde14610270578063c87b56dd1461028c578063e0e5bbb5146102bc578063e985e9c5146102ec576100f5565b80636352211e146101d657806370a082311461020657806395d89b4114610236578063a22cb46514610254576100f5565b8063095ea7b3116100d3578063095ea7b31461017857806323b872dd1461019457806342842e0e146101b05780635ed21ac4146101cc576100f5565b806301ffc9a7146100fa57806306fdde031461012a578063081812fc14610148575b600080fd5b610114600480360381019061010f91906123c0565b61031c565b6040516101219190612ae0565b60405180910390f35b6101326103fe565b60405161013f9190612afb565b60405180910390f35b610162600480360381019061015d9190612412565b610490565b60405161016f9190612a50565b60405180910390f35b610192600480360381019061018d9190612384565b610515565b005b6101ae60048036038101906101a9919061227e565b61062d565b005b6101ca60048036038101906101c5919061227e565b61068d565b005b6101d46106ad565b005b6101f060048036038101906101eb9190612412565b610a5b565b6040516101fd9190612a50565b60405180910390f35b610220600480360381019061021b9190612219565b610b0d565b60405161022d9190612d1d565b60405180910390f35b61023e610bc5565b60405161024b9190612afb565b60405180910390f35b61026e60048036038101906102699190612348565b610c57565b005b61028a600480360381019061028591906122cd565b610c6d565b005b6102a660048036038101906102a19190612412565b610ccf565b6040516102b39190612afb565b60405180910390f35b6102d660048036038101906102d1919061243b565b610e21565b6040516102e39190612afb565b60405180910390f35b61030660048036038101906103019190612242565b610eb3565b6040516103139190612ae0565b60405180910390f35b60007f80ac58cd000000000000000000000000000000000000000000000000000000007bffffffffffffffffffffffffffffffffffffffffffffffffffffffff1916827bffffffffffffffffffffffffffffffffffffffffffffffffffffffff191614806103e757507f5b5e139f000000000000000000000000000000000000000000000000000000007bffffffffffffffffffffffffffffffffffffffffffffffffffffffff1916827bffffffffffffffffffffffffffffffffffffffffffffffffffffffff1916145b806103f757506103f682610fe0565b5b9050919050565b60606000805461040d9061300e565b80601f01602080910402602001604051908101604052809291908181526020018280546104399061300e565b80156104865780601f1061045b57610100808354040283529160200191610486565b820191906000526020600020905b81548152906001019060200180831161046957829003601f168201915b5050505050905090565b600061049b8261104a565b6104da576040517f08c379a00000000000000000000000000000000000000000000000000000000081526004016104d190612c7d565b60405180910390fd5b6004600083815260200190815260200160002060009054906101000a900473ffffffffffffffffffffffffffffffffffffffff169050919050565b600061052082610a5b565b90508073ffffffffffffffffffffffffffffffffffffffff168373ffffffffffffffffffffffffffffffffffffffff161415610591576040517f08c379a000000000000000000000000000000000000000000000000000000000815260040161058890612cdd565b60405180910390fd5b8073ffffffffffffffffffffffffffffffffffffffff166105b06110b6565b73ffffffffffffffffffffffffffffffffffffffff1614806105df57506105de816105d96110b6565b610eb3565b5b61061e576040517f08c379a000000000000000000000000000000000000000000000000000000000815260040161061590612bbd565b60405180910390fd5b61062883836110be565b505050565b61063e6106386110b6565b82611177565b61067d576040517f08c379a000000000000000000000000000000000000000000000000000000000815260040161067490612cfd565b60405180910390fd5b610688838383611255565b505050565b6106a883838360405180602001604052806000815250610c6d565b505050565b60006106b960076114b1565b905060006107ce826009805480602002602001604051908101604052809291908181526020016000905b8282101561078f5783829060005260206000200180546107029061300e565b80601f016020809104026020016040519081016040528092919081815260200182805461072e9061300e565b801561077b5780601f106107505761010080835404028352916020019161077b565b820191906000526020600020905b81548152906001019060200180831161075e57829003601f168201915b5050505050815260200190600101906106e3565b505050506040518060400160405280600581526020017f6669727374000000000000000000000000000000000000000000000000000000815250610e21565b905060006108ae83600a805480602002602001604051908101604052809291908181526020016000905b828210156108a45783829060005260206000200180546108179061300e565b80601f01602080910402602001604051908101604052809291908181526020018280546108439061300e565b80156108905780601f1061086557610100808354040283529160200191610890565b820191906000526020600020905b81548152906001019060200180831161087357829003601f168201915b5050505050815260200190600101906107f8565b5050505084610e21565b9050600082826040516020016108c5929190612969565b604051602081830303815290604052905060006008826040516020016108ec929190612998565b604051602081830303815290604052905060006109318361090c846114bf565b60405160200161091d9291906129e9565b6040516020818303038152906040526114bf565b905061093d338761167d565b610947600761169b565b60008160405160200161095a9190612a2e565b604051602081830303815290604052905061097587826116b1565b6109b36040518060400160405280601581526020017f0a2d2d2d2d2d2d2d2d2d2d2d2d2d2d2d2d2d2d2d2d0000000000000000000000815250610f47565b6109db816040516020016109c791906129c7565b604051602081830303815290604052610f47565b610a196040518060400160405280601581526020017f2d2d2d2d2d2d2d2d2d2d2d2d2d2d2d2d2d2d2d2d0a0000000000000000000000815250610f47565b7fcda531bfd68624f13205c0a23cd4d5a7f09792cbb399603114f2b04aaa1bf5cf3388604051610a4a929190612ab7565b60405180910390a150505050505050565b6000806002600084815260200190815260200160002060009054906101000a900473ffffffffffffffffffffffffffffffffffffffff169050600073ffffffffffffffffffffffffffffffffffffffff168173ffffffffffffffffffffffffffffffffffffffff161415610b04576040517f08c379a0000000000000000000000000000000000000000000000000000000008152600401610afb90612bfd565b60405180910390fd5b80915050919050565b60008073ffffffffffffffffffffffffffffffffffffffff168273ffffffffffffffffffffffffffffffffffffffff161415610b7e576040517f08c379a0000000000000000000000000000000000000000000000000000000008152600401610b7590612bdd565b60405180910390fd5b600360008373ffffffffffffffffffffffffffffffffffffffff1673ffffffffffffffffffffffffffffffffffffffff168152602001908152602001600020549050919050565b606060018054610bd49061300e565b80601f0160208091040260200160405190810160405280929190818152602001828054610c009061300e565b8015610c4d5780601f10610c2257610100808354040283529160200191610c4d565b820191906000526020600020905b815481529060010190602001808311610c3057829003601f168201915b5050505050905090565b610c69610c626110b6565b8383611725565b5050565b610c7e610c786110b6565b83611177565b610cbd576040517f08c379a0000000000000000000000000000000000000000000000000000000008152600401610cb490612cfd565b60405180910390fd5b610cc984848484611892565b50505050565b6060610cda8261104a565b610d19576040517f08c379a0000000000000000000000000000000000000000000000000000000008152600401610d1090612c5d565b60405180910390fd5b6000600660008481526020019081526020016000208054610d399061300e565b80601f0160208091040260200160405190810160405280929190818152602001828054610d659061300e565b8015610db25780601f10610d8757610100808354040283529160200191610db2565b820191906000526020600020905b815481529060010190602001808311610d9557829003601f168201915b505050505090506000610dc36118ee565b9050600081511415610dd9578192505050610e1c565b600082511115610e0e578082604051602001610df6929190612945565b60405160208183030381529060405292505050610e1c565b610e1784611905565b925050505b919050565b60606000610e5783610e32876119ac565b604051602001610e43929190612945565b604051602081830303815290604052611b59565b9050835181610e6691906130ba565b9050838181518110610ea1577f4e487b7100000000000000000000000000000000000000000000000000000000600052603260045260246000fd5b60200260200101519150509392505050565b6000600560008473ffffffffffffffffffffffffffffffffffffffff1673ffffffffffffffffffffffffffffffffffffffff16815260200190815260200160002060008373ffffffffffffffffffffffffffffffffffffffff1673ffffffffffffffffffffffffffffffffffffffff16815260200190815260200160002060009054906101000a900460ff16905092915050565b610fdd81604051602401610f5b9190612afb565b6040516020818303038152906040527f41304fac000000000000000000000000000000000000000000000000000000007bffffffffffffffffffffffffffffffffffffffffffffffffffffffff19166020820180517bffffffffffffffffffffffffffffffffffffffffffffffffffffffff8381831617835250505050611b8c565b50565b60007f01ffc9a7000000000000000000000000000000000000000000000000000000007bffffffffffffffffffffffffffffffffffffffffffffffffffffffff1916827bffffffffffffffffffffffffffffffffffffffffffffffffffffffff1916149050919050565b60008073ffffffffffffffffffffffffffffffffffffffff166002600084815260200190815260200160002060009054906101000a900473ffffffffffffffffffffffffffffffffffffffff1673ffffffffffffffffffffffffffffffffffffffff1614159050919050565b600033905090565b816004600083815260200190815260200160002060006101000a81548173ffffffffffffffffffffffffffffffffffffffff021916908373ffffffffffffffffffffffffffffffffffffffff160217905550808273ffffffffffffffffffffffffffffffffffffffff1661113183610a5b565b73ffffffffffffffffffffffffffffffffffffffff167f8c5be1e5ebec7d5bd14f71427d1e84f3dd0314c0f7b2291e5b200ac8c7c3b92560405160405180910390a45050565b60006111828261104a565b6111c1576040517f08c379a00000000000000000000000000000000000000000000000000000000081526004016111b890612b9d565b60405180910390fd5b60006111cc83610a5b565b90508073ffffffffffffffffffffffffffffffffffffffff168473ffffffffffffffffffffffffffffffffffffffff16148061123b57508373ffffffffffffffffffffffffffffffffffffffff1661122384610490565b73ffffffffffffffffffffffffffffffffffffffff16145b8061124c575061124b8185610eb3565b5b91505092915050565b8273ffffffffffffffffffffffffffffffffffffffff1661127582610a5b565b73ffffffffffffffffffffffffffffffffffffffff16146112cb576040517f08c379a00000000000000000000000000000000000000000000000000000000081526004016112c290612c9d565b60405180910390fd5b600073ffffffffffffffffffffffffffffffffffffffff168273ffffffffffffffffffffffffffffffffffffffff16141561133b576040517f08c379a000000000000000000000000000000000000000000000000000000000815260040161133290612b5d565b60405180910390fd5b611346838383611bb5565b6113516000826110be565b6001600360008573ffffffffffffffffffffffffffffffffffffffff1673ffffffffffffffffffffffffffffffffffffffff16815260200190815260200160002060008282546113a19190612f24565b925050819055506001600360008473ffffffffffffffffffffffffffffffffffffffff1673ffffffffffffffffffffffffffffffffffffffff16815260200190815260200160002060008282546113f89190612e43565b92505081905550816002600083815260200190815260200160002060006101000a81548173ffffffffffffffffffffffffffffffffffffffff021916908373ffffffffffffffffffffffffffffffffffffffff160217905550808273ffffffffffffffffffffffffffffffffffffffff168473ffffffffffffffffffffffffffffffffffffffff167fddf252ad1be2c89b69c2b068fc378daa952ba7f163c4a11628f55a4df523b3ef60405160405180910390a4505050565b600081600001549050919050565b606060008251905060008114156114e85760405180602001604052806000815250915050611678565b600060036002836114f99190612e43565b6115039190612e99565b600461150f9190612eca565b905060006020826115209190612e43565b67ffffffffffffffff81111561155f577f4e487b7100000000000000000000000000000000000000000000000000000000600052604160045260246000fd5b6040519080825280601f01601f1916602001820160405280156115915781602001600182028036833780820191505090505b50905060006040518060600160405280604081526020016137fe604091399050600181016020830160005b868110156116355760038101905062ffffff818a015116603f8160121c168401518060081b905060ff603f83600c1c1686015116810190508060081b905060ff603f8360061c1686015116810190508060081b905060ff603f831686015116810190508060e01b905080845260048401935050506115bc565b50600386066001811461164f576002811461165f5761166a565b613d3d60f01b600283035261166a565b603d60f81b60018303525b508484525050819450505050505b919050565b611697828260405180602001604052806000815250611bba565b5050565b6001816000016000828254019250508190555050565b6116ba8261104a565b6116f9576040517f08c379a00000000000000000000000000000000000000000000000000000000081526004016116f090612c1d565b60405180910390fd5b80600660008481526020019081526020016000209080519060200190611720929190611f8d565b505050565b8173ffffffffffffffffffffffffffffffffffffffff168373ffffffffffffffffffffffffffffffffffffffff161415611794576040517f08c379a000000000000000000000000000000000000000000000000000000000815260040161178b90612b7d565b60405180910390fd5b80600560008573ffffffffffffffffffffffffffffffffffffffff1673ffffffffffffffffffffffffffffffffffffffff16815260200190815260200160002060008473ffffffffffffffffffffffffffffffffffffffff1673ffffffffffffffffffffffffffffffffffffffff16815260200190815260200160002060006101000a81548160ff0219169083151502179055508173ffffffffffffffffffffffffffffffffffffffff168373ffffffffffffffffffffffffffffffffffffffff167f17307eab39ab6107e8899845ad3d59bd9653f200f220920489ca2b5937696c31836040516118859190612ae0565b60405180910390a3505050565b61189d848484611255565b6118a984848484611c15565b6118e8576040517f08c379a00000000000000000000000000000000000000000000000000000000081526004016118df90612b1d565b60405180910390fd5b50505050565b606060405180602001604052806000815250905090565b60606119108261104a565b61194f576040517f08c379a000000000000000000000000000000000000000000000000000000000815260040161194690612cbd565b60405180910390fd5b60006119596118ee565b9050600081511161197957604051806020016040528060008152506119a4565b80611983846119ac565b604051602001611994929190612945565b6040516020818303038152906040525b915050919050565b606060008214156119f4576040518060400160405280600181526020017f30000000000000000000000000000000000000000000000000000000000000008152509050611b54565b600082905060005b60008214611a26578080611a0f90613071565b915050600a82611a1f9190612e99565b91506119fc565b60008167ffffffffffffffff811115611a68577f4e487b7100000000000000000000000000000000000000000000000000000000600052604160045260246000fd5b6040519080825280601f01601f191660200182016040528015611a9a5781602001600182028036833780820191505090505b5090505b60008514611b4d57600182611ab39190612f24565b9150600a85611ac291906130ba565b6030611ace9190612e43565b60f81b818381518110611b0a577f4e487b7100000000000000000000000000000000000000000000000000000000600052603260045260246000fd5b60200101907effffffffffffffffffffffffffffffffffffffffffffffffffffffffffffff1916908160001a905350600a85611b469190612e99565b9450611a9e565b8093505050505b919050565b600081604051602001611b6c919061292e565b6040516020818303038152906040528051906020012060001c9050919050565b60008151905060006a636f6e736f6c652e6c6f679050602083016000808483855afa5050505050565b505050565b611bc48383611dac565b611bd16000848484611c15565b611c10576040517f08c379a0000000000000000000000000000000000000000000000000000000008152600401611c0790612b1d565b60405180910390fd5b505050565b6000611c368473ffffffffffffffffffffffffffffffffffffffff16611f7a565b15611d9f578373ffffffffffffffffffffffffffffffffffffffff1663150b7a02611c5f6110b6565b8786866040518563ffffffff1660e01b8152600401611c819493929190612a6b565b602060405180830381600087803b158015611c9b57600080fd5b505af1925050508015611ccc57506040513d601f19601f82011682018060405250810190611cc991906123e9565b60015b611d4f573d8060008114611cfc576040519150601f19603f3d011682016040523d82523d6000602084013e611d01565b606091505b50600081511415611d47576040517f08c379a0000000000000000000000000000000000000000000000000000000008152600401611d3e90612b1d565b60405180910390fd5b805181602001fd5b63150b7a0260e01b7bffffffffffffffffffffffffffffffffffffffffffffffffffffffff1916817bffffffffffffffffffffffffffffffffffffffffffffffffffffffff191614915050611da4565b600190505b949350505050565b600073ffffffffffffffffffffffffffffffffffffffff168273ffffffffffffffffffffffffffffffffffffffff161415611e1c576040517f08c379a0000000000000000000000000000000000000000000000000000000008152600401611e1390612c3d565b60405180910390fd5b611e258161104a565b15611e65576040517f08c379a0000000000000000000000000000000000000000000000000000000008152600401611e5c90612b3d565b60405180910390fd5b611e7160008383611bb5565b6001600360008473ffffffffffffffffffffffffffffffffffffffff1673ffffffffffffffffffffffffffffffffffffffff1681526020019081526020016000206000828254611ec19190612e43565b92505081905550816002600083815260200190815260200160002060006101000a81548173ffffffffffffffffffffffffffffffffffffffff021916908373ffffffffffffffffffffffffffffffffffffffff160217905550808273ffffffffffffffffffffffffffffffffffffffff16600073ffffffffffffffffffffffffffffffffffffffff167fddf252ad1be2c89b69c2b068fc378daa952ba7f163c4a11628f55a4df523b3ef60405160405180910390a45050565b600080823b905060008111915050919050565b828054611f999061300e565b90600052602060002090601f016020900481019282611fbb5760008555612002565b82601f10611fd457805160ff1916838001178555612002565b82800160010185558215612002579182015b82811115612001578251825591602001919060010190611fe6565b5b50905061200f9190612013565b5090565b5b8082111561202c576000816000905550600101612014565b5090565b600061204361203e84612d5d565b612d38565b9050808382526020820190508285602086028201111561206257600080fd5b60005b858110156120ac57813567ffffffffffffffff81111561208457600080fd5b80860161209189826121da565b85526020850194506020840193505050600181019050612065565b5050509392505050565b60006120c96120c484612d89565b612d38565b9050828152602081018484840111156120e157600080fd5b6120ec848285612fcc565b509392505050565b600061210761210284612dba565b612d38565b90508281526020810184848401111561211f57600080fd5b61212a848285612fcc565b509392505050565b600081359050612141816137a1565b92915050565b600082601f83011261215857600080fd5b8135612168848260208601612030565b91505092915050565b600081359050612180816137b8565b92915050565b600081359050612195816137cf565b92915050565b6000815190506121aa816137cf565b92915050565b600082601f8301126121c157600080fd5b81356121d18482602086016120b6565b91505092915050565b600082601f8301126121eb57600080fd5b81356121fb8482602086016120f4565b91505092915050565b600081359050612213816137e6565b92915050565b60006020828403121561222b57600080fd5b600061223984828501612132565b91505092915050565b6000806040838503121561225557600080fd5b600061226385828601612132565b925050602061227485828601612132565b9150509250929050565b60008060006060848603121561229357600080fd5b60006122a186828701612132565b93505060206122b286828701612132565b92505060406122c386828701612204565b9150509250925092565b600080600080608085870312156122e357600080fd5b60006122f187828801612132565b945050602061230287828801612132565b935050604061231387828801612204565b925050606085013567ffffffffffffffff81111561233057600080fd5b61233c878288016121b0565b91505092959194509250565b6000806040838503121561235b57600080fd5b600061236985828601612132565b925050602061237a85828601612171565b9150509250929050565b6000806040838503121561239757600080fd5b60006123a585828601612132565b92505060206123b685828601612204565b9150509250929050565b6000602082840312156123d257600080fd5b60006123e084828501612186565b91505092915050565b6000602082840312156123fb57600080fd5b60006124098482850161219b565b91505092915050565b60006020828403121561242457600080fd5b600061243284828501612204565b91505092915050565b60008060006060848603121561245057600080fd5b600061245e86828701612204565b935050602084013567ffffffffffffffff81111561247b57600080fd5b61248786828701612147565b925050604084013567ffffffffffffffff8111156124a457600080fd5b6124b0868287016121da565b9150509250925092565b6124c381612f58565b82525050565b6124d281612f6a565b82525050565b60006124e382612e00565b6124ed8185612e16565b93506124fd818560208601612fdb565b612506816131a7565b840191505092915050565b600061251c82612e0b565b6125268185612e27565b9350612536818560208601612fdb565b61253f816131a7565b840191505092915050565b600061255582612e0b565b61255f8185612e38565b935061256f818560208601612fdb565b80840191505092915050565b600081546125888161300e565b6125928186612e38565b945060018216600081146125ad57600181146125be576125f1565b60ff198316865281860193506125f1565b6125c785612deb565b60005b838110156125e9578154818901526001820191506020810190506125ca565b838801955050505b50505092915050565b6000612607602583612e38565b9150612612826131b8565b602582019050919050565b600061262a603283612e27565b915061263582613207565b604082019050919050565b600061264d601c83612e27565b915061265882613256565b602082019050919050565b6000612670603e83612e38565b915061267b8261327f565b603e82019050919050565b6000612693602483612e27565b915061269e826132ce565b604082019050919050565b60006126b6601983612e27565b91506126c18261331d565b602082019050919050565b60006126d9602c83612e27565b91506126e482613346565b604082019050919050565b60006126fc600d83612e38565b915061270782613395565b600d82019050919050565b600061271f600183612e38565b915061272a826133be565b600182019050919050565b6000612742603883612e27565b915061274d826133e7565b604082019050919050565b6000612765602a83612e27565b915061277082613436565b604082019050919050565b6000612788602983612e27565b915061279382613485565b604082019050919050565b60006127ab602e83612e27565b91506127b6826134d4565b604082019050919050565b60006127ce600283612e38565b91506127d982613523565b600282019050919050565b60006127f1602083612e27565b91506127fc8261354c565b602082019050919050565b6000612814603183612e27565b915061281f82613575565b604082019050919050565b6000612837602c83612e27565b9150612842826135c4565b604082019050919050565b600061285a602983612e27565b915061286582613613565b604082019050919050565b600061287d602f83612e27565b915061288882613662565b604082019050919050565b60006128a0600a83612e38565b91506128ab826136b1565b600a82019050919050565b60006128c3602183612e27565b91506128ce826136da565b604082019050919050565b60006128e6601d83612e38565b91506128f182613729565b601d82019050919050565b6000612909603183612e27565b915061291482613752565b604082019050919050565b61292881612fc2565b82525050565b600061293a828461254a565b915081905092915050565b6000612951828561254a565b915061295d828461254a565b91508190509392505050565b6000612975828561254a565b915061298082612712565b915061298c828461254a565b91508190509392505050565b60006129a4828561257b565b91506129b0828461254a565b91506129bb826126ef565b91508190509392505050565b60006129d2826125fa565b91506129de828461254a565b915081905092915050565b60006129f482612893565b9150612a00828561254a565b9150612a0b82612663565b9150612a17828461254a565b9150612a22826127c1565b91508190509392505050565b6000612a39826128d9565b9150612a45828461254a565b915081905092915050565b6000602082019050612a6560008301846124ba565b92915050565b6000608082019050612a8060008301876124ba565b612a8d60208301866124ba565b612a9a604083018561291f565b8181036060830152612aac81846124d8565b905095945050505050565b6000604082019050612acc60008301856124ba565b612ad9602083018461291f565b9392505050565b6000602082019050612af560008301846124c9565b92915050565b60006020820190508181036000830152612b158184612511565b905092915050565b60006020820190508181036000830152612b368161261d565b9050919050565b60006020820190508181036000830152612b5681612640565b9050919050565b60006020820190508181036000830152612b7681612686565b9050919050565b60006020820190508181036000830152612b96816126a9565b9050919050565b60006020820190508181036000830152612bb6816126cc565b9050919050565b60006020820190508181036000830152612bd681612735565b9050919050565b60006020820190508181036000830152612bf681612758565b9050919050565b60006020820190508181036000830152612c168161277b565b9050919050565b60006020820190508181036000830152612c368161279e565b9050919050565b60006020820190508181036000830152612c56816127e4565b9050919050565b60006020820190508181036000830152612c7681612807565b9050919050565b60006020820190508181036000830152612c968161282a565b9050919050565b60006020820190508181036000830152612cb68161284d565b9050919050565b60006020820190508181036000830152612cd681612870565b9050919050565b60006020820190508181036000830152612cf6816128b6565b9050919050565b60006020820190508181036000830152612d16816128fc565b9050919050565b6000602082019050612d32600083018461291f565b92915050565b6000612d42612d53565b9050612d4e8282613040565b919050565b6000604051905090565b600067ffffffffffffffff821115612d7857612d77613178565b5b602082029050602081019050919050565b600067ffffffffffffffff821115612da457612da3613178565b5b612dad826131a7565b9050602081019050919050565b600067ffffffffffffffff821115612dd557612dd4613178565b5b612dde826131a7565b9050602081019050919050565b60008190508160005260206000209050919050565b600081519050919050565b600081519050919050565b600082825260208201905092915050565b600082825260208201905092915050565b600081905092915050565b6000612e4e82612fc2565b9150612e5983612fc2565b9250827fffffffffffffffffffffffffffffffffffffffffffffffffffffffffffffffff03821115612e8e57612e8d6130eb565b5b828201905092915050565b6000612ea482612fc2565b9150612eaf83612fc2565b925082612ebf57612ebe61311a565b5b828204905092915050565b6000612ed582612fc2565b9150612ee083612fc2565b9250817fffffffffffffffffffffffffffffffffffffffffffffffffffffffffffffffff0483118215151615612f1957612f186130eb565b5b828202905092915050565b6000612f2f82612fc2565b9150612f3a83612fc2565b925082821015612f4d57612f4c6130eb565b5b828203905092915050565b6000612f6382612fa2565b9050919050565b60008115159050919050565b60007fffffffff0000000000000000000000000000000000000000000000000000000082169050919050565b600073ffffffffffffffffffffffffffffffffffffffff82169050919050565b6000819050919050565b82818337600083830152505050565b60005b83811015612ff9578082015181840152602081019050612fde565b83811115613008576000848401525b50505050565b6000600282049050600182168061302657607f821691505b6020821081141561303a57613039613149565b5b50919050565b613049826131a7565b810181811067ffffffffffffffff8211171561306857613067613178565b5b80604052505050565b600061307c82612fc2565b91507fffffffffffffffffffffffffffffffffffffffffffffffffffffffffffffffff8214156130af576130ae6130eb565b5b600182019050919050565b60006130c582612fc2565b91506130d083612fc2565b9250826130e0576130df61311a565b5b828206905092915050565b7f4e487b7100000000000000000000000000000000000000000000000000000000600052601160045260246000fd5b7f4e487b7100000000000000000000000000000000000000000000000000000000600052601260045260246000fd5b7f4e487b7100000000000000000000000000000000000000000000000000000000600052602260045260246000fd5b7f4e487b7100000000000000000000000000000000000000000000000000000000600052604160045260246000fd5b6000601f19601f8301169050919050565b7f68747470733a2f2f6e6674707265766965772e30786465762e636f6465732f3f60008201527f636f64653d000000000000000000000000000000000000000000000000000000602082015250565b7f4552433732313a207472616e7366657220746f206e6f6e20455243373231526560008201527f63656976657220696d706c656d656e7465720000000000000000000000000000602082015250565b7f4552433732313a20746f6b656e20616c7265616479206d696e74656400000000600082015250565b7f222c20226465736372697074696f6e223a20224c474254222c2022696d61676560008201527f223a2022646174613a696d6167652f7376672b786d6c3b6261736536342c0000602082015250565b7f4552433732313a207472616e7366657220746f20746865207a65726f2061646460008201527f7265737300000000000000000000000000000000000000000000000000000000602082015250565b7f4552433732313a20617070726f766520746f2063616c6c657200000000000000600082015250565b7f4552433732313a206f70657261746f7220717565727920666f72206e6f6e657860008201527f697374656e7420746f6b656e0000000000000000000000000000000000000000602082015250565b7f3c2f746578743e3c2f7376673e00000000000000000000000000000000000000600082015250565b7f2000000000000000000000000000000000000000000000000000000000000000600082015250565b7f4552433732313a20617070726f76652063616c6c6572206973206e6f74206f7760008201527f6e6572206e6f7220617070726f76656420666f7220616c6c0000000000000000602082015250565b7f4552433732313a2062616c616e636520717565727920666f7220746865207a6560008201527f726f206164647265737300000000000000000000000000000000000000000000602082015250565b7f4552433732313a206f776e657220717565727920666f72206e6f6e657869737460008201527f656e7420746f6b656e0000000000000000000000000000000000000000000000602082015250565b7f45524337323155524953746f726167653a2055524920736574206f66206e6f6e60008201527f6578697374656e7420746f6b656e000000000000000000000000000000000000602082015250565b7f227d000000000000000000000000000000000000000000000000000000000000600082015250565b7f4552433732313a206d696e7420746f20746865207a65726f2061646472657373600082015250565b7f45524337323155524953746f726167653a2055524920717565727920666f722060008201527f6e6f6e6578697374656e7420746f6b656e000000000000000000000000000000602082015250565b7f4552433732313a20617070726f76656420717565727920666f72206e6f6e657860008201527f697374656e7420746f6b656e0000000000000000000000000000000000000000602082015250565b7f4552433732313a207472616e73666572206f6620746f6b656e2074686174206960008201527f73206e6f74206f776e0000000000000000000000000000000000000000000000602082015250565b7f4552433732314d657461646174613a2055524920717565727920666f72206e6f60008201527f6e6578697374656e7420746f6b656e0000000000000000000000000000000000602082015250565b7f7b226e616d65223a202200000000000000000000000000000000000000000000600082015250565b7f4552433732313a20617070726f76616c20746f2063757272656e74206f776e6560008201527f7200000000000000000000000000000000000000000000000000000000000000602082015250565b7f646174613a6170706c69636174696f6e2f6a736f6e3b6261736536342c000000600082015250565b7f4552433732313a207472616e736665722063616c6c6572206973206e6f74206f60008201527f776e6572206e6f7220617070726f766564000000000000000000000000000000602082015250565b6137aa81612f58565b81146137b557600080fd5b50565b6137c181612f6a565b81146137cc57600080fd5b50565b6137d881612f76565b81146137e357600080fd5b50565b6137ef81612fc2565b81146137fa57600080fd5b5056fe4142434445464748494a4b4c4d4e4f505152535455565758595a6162636465666768696a6b6c6d6e6f707172737475767778797a303132333435363738392b2fa26469706673582212202fd88f902ae96d68af50d792586ca553922bb1007b45a0cff91e4ec20024f2a564736f6c634300080400333c73766720786d6c6e733d27687474703a2f2f7777772e77332e6f72672f323030302f73766727207072657365727665417370656374526174696f3d27784d696e594d696e206d656574272076696577426f783d273020302033353020333530273e3c7374796c653e2e62617365207b2066696c6c3a2077686974653b20666f6e742d66616d696c793a2073657269663b20666f6e742d73697a653a20323470783b207d3c2f7374796c653e3c726563742077696474683d273130302527206865696768743d2731303025272066696c6c3d27626c61636b27202f3e3c7465787420783d273530252720793d273530252720636c6173733d27626173652720646f6d696e616e742d626173656c696e653d276d6964646c652720746578742d616e63686f723d276d6964646c65273e",
  "linkReferences": {},
  "deployedLinkReferences": {}
}